{
	"contracts/Vault.sol": {
		"Vault": {
			"abi": [
				{
					"inputs": [],
					"stateMutability": "nonpayable",
					"type": "constructor"
				},
				{
					"inputs": [
						{
							"internalType": "address",
							"name": "recipient",
							"type": "address"
						}
					],
					"name": "depositFunds",
					"outputs": [],
					"stateMutability": "payable",
					"type": "function"
				},
				{
					"inputs": [],
					"name": "topUp",
					"outputs": [],
					"stateMutability": "payable",
					"type": "function"
				},
				{
					"inputs": [],
					"name": "withdrawAllFunds",
					"outputs": [
						{
							"internalType": "bool",
							"name": "",
							"type": "bool"
						}
					],
					"stateMutability": "nonpayable",
					"type": "function"
				},
				{
					"inputs": [
						{
							"internalType": "uint256",
							"name": "amount",
							"type": "uint256"
						}
					],
					"name": "withdrawFunds",
					"outputs": [
						{
							"internalType": "bool",
							"name": "",
							"type": "bool"
						}
					],
					"stateMutability": "nonpayable",
					"type": "function"
				}
			],
			"devdoc": {
				"kind": "dev",
				"methods": {
					"depositFunds(address)": {
						"params": {
							"recipient": "The user whose balance will be credited"
						}
					},
					"withdrawFunds(uint256)": {
						"params": {
							"amount": "Amount of ETH to withdraw  "
						}
					}
				},
				"title": "Vault - Deposit and withdraw system per user",
				"version": 1
			},
			"evm": {
				"assembly": "    /* \"contracts/Vault.sol\":238:1325  contract Vault is FundBase{... */\n  mstore(0x40, 0xa0)\n    /* \"contracts/Vault.sol\":357:383  constructor() FundBase(){} */\n  callvalue\n  dup1\n  iszero\n  tag_1\n  jumpi\n  revert(0x00, 0x00)\ntag_1:\n  pop\n    /* \"contracts/FundBase.sol\":323:333  msg.sender */\n  caller\n    /* \"contracts/FundBase.sol\":315:333  owner = msg.sender */\n  0xffffffffffffffffffffffffffffffffffffffff\n  and\n  0x80\n  dup2\n  0xffffffffffffffffffffffffffffffffffffffff\n  and\n  dup2\n  mstore\n  pop\n  pop\n    /* \"contracts/Vault.sol\":238:1325  contract Vault is FundBase{... */\n  mload(0x80)\n  codecopy(0x00, dataOffset(sub_0), dataSize(sub_0))\n  0x00\n  assignImmutable(\"0x13600b294191fc92924bb3ce4b969c1e7e2bab8f4c93c3fc6d0a51733df3c060\")\n  return(0x00, dataSize(sub_0))\nstop\n\nsub_0: assembly {\n        /* \"contracts/Vault.sol\":238:1325  contract Vault is FundBase{... */\n      mstore(0x40, 0x80)\n      jumpi(tag_1, lt(calldatasize, 0x04))\n      shr(0xe0, calldataload(0x00))\n      dup1\n      0x155dd5ee\n      eq\n      tag_2\n      jumpi\n      dup1\n      0x49649fbf\n      eq\n      tag_3\n      jumpi\n      dup1\n      0x919747fb\n      eq\n      tag_4\n      jumpi\n      dup1\n      0xdc29f1de\n      eq\n      tag_5\n      jumpi\n    tag_1:\n      revert(0x00, 0x00)\n        /* \"contracts/Vault.sol\":915:1170  function withdrawFunds(uint256 amount) public returns (bool){... */\n    tag_2:\n      callvalue\n      dup1\n      iszero\n      tag_6\n      jumpi\n      revert(0x00, 0x00)\n    tag_6:\n      pop\n      tag_7\n      0x04\n      dup1\n      calldatasize\n      sub\n      dup2\n      add\n      swap1\n      tag_8\n      swap2\n      swap1\n      tag_9\n      jump\t// in\n    tag_8:\n      tag_10\n      jump\t// in\n    tag_7:\n      mload(0x40)\n      tag_11\n      swap2\n      swap1\n      tag_12\n      jump\t// in\n    tag_11:\n      mload(0x40)\n      dup1\n      swap2\n      sub\n      swap1\n      return\n        /* \"contracts/Vault.sol\":1216:1323  function withdrawAllFunds() external returns (bool){... */\n    tag_3:\n      callvalue\n      dup1\n      iszero\n      tag_13\n      jumpi\n      revert(0x00, 0x00)\n    tag_13:\n      pop\n      tag_14\n      tag_15\n      jump\t// in\n    tag_14:\n      mload(0x40)\n      tag_16\n      swap2\n      swap1\n      tag_12\n      jump\t// in\n    tag_16:\n      mload(0x40)\n      dup1\n      swap2\n      sub\n      swap1\n      return\n        /* \"contracts/Vault.sol\":511:661  function depositFunds(address recipient) public payable{... */\n    tag_4:\n      tag_17\n      0x04\n      dup1\n      calldatasize\n      sub\n      dup2\n      add\n      swap1\n      tag_18\n      swap2\n      swap1\n      tag_19\n      jump\t// in\n    tag_18:\n      tag_20\n      jump\t// in\n    tag_17:\n      stop\n        /* \"contracts/Vault.sol\":724:796  function topUp() public payable{... */\n    tag_5:\n      tag_21\n      tag_22\n      jump\t// in\n    tag_21:\n      stop\n        /* \"contracts/Vault.sol\":915:1170  function withdrawFunds(uint256 amount) public returns (bool){... */\n    tag_10:\n        /* \"contracts/Vault.sol\":970:974  bool */\n      0x00\n        /* \"contracts/Vault.sol\":1002:1003  0 */\n      0x00\n        /* \"contracts/Vault.sol\":993:999  amount */\n      dup3\n        /* \"contracts/Vault.sol\":993:1003  amount > 0 */\n      gt\n        /* \"contracts/Vault.sol\":993:1034  amount > 0 && funds[msg.sender] >= amount */\n      dup1\n      iszero\n      tag_24\n      jumpi\n      pop\n        /* \"contracts/Vault.sol\":1028:1034  amount */\n      dup2\n        /* \"contracts/Vault.sol\":1007:1012  funds */\n      0x00\n        /* \"contracts/Vault.sol\":1007:1024  funds[msg.sender] */\n      0x00\n        /* \"contracts/Vault.sol\":1013:1023  msg.sender */\n      caller\n        /* \"contracts/Vault.sol\":1007:1024  funds[msg.sender] */\n      0xffffffffffffffffffffffffffffffffffffffff\n      and\n      0xffffffffffffffffffffffffffffffffffffffff\n      and\n      dup2\n      mstore\n      0x20\n      add\n      swap1\n      dup2\n      mstore\n      0x20\n      add\n      0x00\n      keccak256\n      sload\n        /* \"contracts/Vault.sol\":1007:1034  funds[msg.sender] >= amount */\n      lt\n      iszero\n        /* \"contracts/Vault.sol\":993:1034  amount > 0 && funds[msg.sender] >= amount */\n    tag_24:\n        /* \"contracts/Vault.sol\":985:1055  require(amount > 0 && funds[msg.sender] >= amount, \"Not enough funds\") */\n      tag_25\n      jumpi\n      mload(0x40)\n      0x08c379a000000000000000000000000000000000000000000000000000000000\n      dup2\n      mstore\n      0x04\n      add\n      tag_26\n      swap1\n      tag_27\n      jump\t// in\n    tag_26:\n      mload(0x40)\n      dup1\n      swap2\n      sub\n      swap1\n      revert\n    tag_25:\n        /* \"contracts/Vault.sol\":1086:1092  amount */\n      dup2\n        /* \"contracts/Vault.sol\":1065:1070  funds */\n      0x00\n        /* \"contracts/Vault.sol\":1065:1082  funds[msg.sender] */\n      0x00\n        /* \"contracts/Vault.sol\":1071:1081  msg.sender */\n      caller\n        /* \"contracts/Vault.sol\":1065:1082  funds[msg.sender] */\n      0xffffffffffffffffffffffffffffffffffffffff\n      and\n      0xffffffffffffffffffffffffffffffffffffffff\n      and\n      dup2\n      mstore\n      0x20\n      add\n      swap1\n      dup2\n      mstore\n      0x20\n      add\n      0x00\n      keccak256\n      0x00\n        /* \"contracts/Vault.sol\":1065:1092  funds[msg.sender] -= amount */\n      dup3\n      dup3\n      sload\n      tag_28\n      swap2\n      swap1\n      tag_29\n      jump\t// in\n    tag_28:\n      swap3\n      pop\n      pop\n      dup2\n      swap1\n      sstore\n      pop\n        /* \"contracts/Vault.sol\":1110:1137  sendEth(amount, msg.sender) */\n      tag_30\n        /* \"contracts/Vault.sol\":1118:1124  amount */\n      dup3\n        /* \"contracts/Vault.sol\":1126:1136  msg.sender */\n      caller\n        /* \"contracts/Vault.sol\":1110:1117  sendEth */\n      tag_31\n        /* \"contracts/Vault.sol\":1110:1137  sendEth(amount, msg.sender) */\n      jump\t// in\n    tag_30:\n        /* \"contracts/Vault.sol\":1102:1142  require(sendEth(amount, msg.sender), \"\") */\n      tag_32\n      jumpi\n      mload(0x40)\n      0x08c379a000000000000000000000000000000000000000000000000000000000\n      dup2\n      mstore\n      0x04\n      add\n      tag_33\n      swap1\n      tag_34\n      jump\t// in\n    tag_33:\n      mload(0x40)\n      dup1\n      swap2\n      sub\n      swap1\n      revert\n    tag_32:\n        /* \"contracts/Vault.sol\":1159:1163  true */\n      0x01\n        /* \"contracts/Vault.sol\":1152:1163  return true */\n      swap1\n      pop\n        /* \"contracts/Vault.sol\":915:1170  function withdrawFunds(uint256 amount) public returns (bool){... */\n      swap2\n      swap1\n      pop\n      jump\t// out\n        /* \"contracts/Vault.sol\":1216:1323  function withdrawAllFunds() external returns (bool){... */\n    tag_15:\n        /* \"contracts/Vault.sol\":1262:1266  bool */\n      0x00\n        /* \"contracts/Vault.sol\":1284:1316  withdrawFunds(funds[msg.sender]) */\n      tag_36\n        /* \"contracts/Vault.sol\":1298:1303  funds */\n      0x00\n        /* \"contracts/Vault.sol\":1298:1315  funds[msg.sender] */\n      0x00\n        /* \"contracts/Vault.sol\":1304:1314  msg.sender */\n      caller\n        /* \"contracts/Vault.sol\":1298:1315  funds[msg.sender] */\n      0xffffffffffffffffffffffffffffffffffffffff\n      and\n      0xffffffffffffffffffffffffffffffffffffffff\n      and\n      dup2\n      mstore\n      0x20\n      add\n      swap1\n      dup2\n      mstore\n      0x20\n      add\n      0x00\n      keccak256\n      sload\n        /* \"contracts/Vault.sol\":1284:1297  withdrawFunds */\n      tag_10\n        /* \"contracts/Vault.sol\":1284:1316  withdrawFunds(funds[msg.sender]) */\n      jump\t// in\n    tag_36:\n        /* \"contracts/Vault.sol\":1277:1316  return withdrawFunds(funds[msg.sender]) */\n      swap1\n      pop\n        /* \"contracts/Vault.sol\":1216:1323  function withdrawAllFunds() external returns (bool){... */\n      swap1\n      jump\t// out\n        /* \"contracts/Vault.sol\":511:661  function depositFunds(address recipient) public payable{... */\n    tag_20:\n        /* \"contracts/Vault.sol\":596:597  0 */\n      0x00\n        /* \"contracts/Vault.sol\":584:593  msg.value */\n      callvalue\n        /* \"contracts/Vault.sol\":584:597  msg.value > 0 */\n      gt\n        /* \"contracts/Vault.sol\":576:615  require(msg.value > 0, \"Must send ETH\") */\n      tag_38\n      jumpi\n      mload(0x40)\n      0x08c379a000000000000000000000000000000000000000000000000000000000\n      dup2\n      mstore\n      0x04\n      add\n      tag_39\n      swap1\n      tag_40\n      jump\t// in\n    tag_39:\n      mload(0x40)\n      dup1\n      swap2\n      sub\n      swap1\n      revert\n    tag_38:\n        /* \"contracts/Vault.sol\":645:654  msg.value */\n      callvalue\n        /* \"contracts/Vault.sol\":625:630  funds */\n      0x00\n        /* \"contracts/Vault.sol\":625:641  funds[recipient] */\n      0x00\n        /* \"contracts/Vault.sol\":631:640  recipient */\n      dup4\n        /* \"contracts/Vault.sol\":625:641  funds[recipient] */\n      0xffffffffffffffffffffffffffffffffffffffff\n      and\n      0xffffffffffffffffffffffffffffffffffffffff\n      and\n      dup2\n      mstore\n      0x20\n      add\n      swap1\n      dup2\n      mstore\n      0x20\n      add\n      0x00\n      keccak256\n      0x00\n        /* \"contracts/Vault.sol\":625:654  funds[recipient] += msg.value */\n      dup3\n      dup3\n      sload\n      tag_41\n      swap2\n      swap1\n      tag_42\n      jump\t// in\n    tag_41:\n      swap3\n      pop\n      pop\n      dup2\n      swap1\n      sstore\n      pop\n        /* \"contracts/Vault.sol\":511:661  function depositFunds(address recipient) public payable{... */\n      pop\n      jump\t// out\n        /* \"contracts/Vault.sol\":724:796  function topUp() public payable{... */\n    tag_22:\n        /* \"contracts/Vault.sol\":765:789  depositFunds(msg.sender) */\n      tag_44\n        /* \"contracts/Vault.sol\":778:788  msg.sender */\n      caller\n        /* \"contracts/Vault.sol\":765:777  depositFunds */\n      tag_20\n        /* \"contracts/Vault.sol\":765:789  depositFunds(msg.sender) */\n      jump\t// in\n    tag_44:\n        /* \"contracts/Vault.sol\":724:796  function topUp() public payable{... */\n      jump\t// out\n        /* \"contracts/FundBase.sol\":555:866  function sendEth(uint256 amount, address recipient) internal returns (bool){... */\n    tag_31:\n        /* \"contracts/FundBase.sol\":625:629  bool */\n      0x00\n        /* \"contracts/FundBase.sol\":673:679  amount */\n      dup3\n        /* \"contracts/FundBase.sol\":648:669  address(this).balance */\n      selfbalance\n        /* \"contracts/FundBase.sol\":648:679  address(this).balance >= amount */\n      lt\n      iszero\n        /* \"contracts/FundBase.sol\":648:693  address(this).balance >= amount && amount > 0 */\n      dup1\n      iszero\n      tag_46\n      jumpi\n      pop\n        /* \"contracts/FundBase.sol\":692:693  0 */\n      0x00\n        /* \"contracts/FundBase.sol\":683:689  amount */\n      dup4\n        /* \"contracts/FundBase.sol\":683:693  amount > 0 */\n      gt\n        /* \"contracts/FundBase.sol\":648:693  address(this).balance >= amount && amount > 0 */\n    tag_46:\n        /* \"contracts/FundBase.sol\":640:714  require(address(this).balance >= amount && amount > 0, \"Not enough funds\") */\n      tag_47\n      jumpi\n      mload(0x40)\n      0x08c379a000000000000000000000000000000000000000000000000000000000\n      dup2\n      mstore\n      0x04\n      add\n      tag_48\n      swap1\n      tag_27\n      jump\t// in\n    tag_48:\n      mload(0x40)\n      dup1\n      swap2\n      sub\n      swap1\n      revert\n    tag_47:\n        /* \"contracts/FundBase.sol\":725:737  bool success */\n      0x00\n        /* \"contracts/FundBase.sol\":751:760  recipient */\n      dup3\n        /* \"contracts/FundBase.sol\":743:766  payable(recipient).call */\n      0xffffffffffffffffffffffffffffffffffffffff\n      and\n        /* \"contracts/FundBase.sol\":774:780  amount */\n      dup5\n        /* \"contracts/FundBase.sol\":743:785  payable(recipient).call{value: amount}(\"\") */\n      mload(0x40)\n      tag_49\n      swap1\n      tag_50\n      jump\t// in\n    tag_49:\n      0x00\n      mload(0x40)\n      dup1\n      dup4\n      sub\n      dup2\n      dup6\n      dup8\n      gas\n      call\n      swap3\n      pop\n      pop\n      pop\n      returndatasize\n      dup1\n      0x00\n      dup2\n      eq\n      tag_53\n      jumpi\n      mload(0x40)\n      swap2\n      pop\n      and(add(returndatasize, 0x3f), not(0x1f))\n      dup3\n      add\n      0x40\n      mstore\n      returndatasize\n      dup3\n      mstore\n      returndatasize\n      0x00\n      0x20\n      dup5\n      add\n      returndatacopy\n      jump(tag_52)\n    tag_53:\n      0x60\n      swap2\n      pop\n    tag_52:\n      pop\n        /* \"contracts/FundBase.sol\":724:785  (bool success, ) = payable(recipient).call{value: amount}(\"\") */\n      pop\n      swap1\n      pop\n        /* \"contracts/FundBase.sol\":803:810  success */\n      dup1\n        /* \"contracts/FundBase.sol\":795:835  require(success, \"Invalid ETH transfer\") */\n      tag_54\n      jumpi\n      mload(0x40)\n      0x08c379a000000000000000000000000000000000000000000000000000000000\n      dup2\n      mstore\n      0x04\n      add\n      tag_55\n      swap1\n      tag_56\n      jump\t// in\n    tag_55:\n      mload(0x40)\n      dup1\n      swap2\n      sub\n      swap1\n      revert\n    tag_54:\n        /* \"contracts/FundBase.sol\":852:859  success */\n      dup1\n        /* \"contracts/FundBase.sol\":845:859  return success */\n      swap2\n      pop\n      pop\n        /* \"contracts/FundBase.sol\":555:866  function sendEth(uint256 amount, address recipient) internal returns (bool){... */\n      swap3\n      swap2\n      pop\n      pop\n      jump\t// out\n        /* \"#utility.yul\":88:205   */\n    tag_58:\n        /* \"#utility.yul\":197:198   */\n      0x00\n        /* \"#utility.yul\":194:195   */\n      0x00\n        /* \"#utility.yul\":187:199   */\n      revert\n        /* \"#utility.yul\":334:411   */\n    tag_60:\n        /* \"#utility.yul\":371:378   */\n      0x00\n        /* \"#utility.yul\":400:405   */\n      dup2\n        /* \"#utility.yul\":389:405   */\n      swap1\n      pop\n        /* \"#utility.yul\":334:411   */\n      swap2\n      swap1\n      pop\n      jump\t// out\n        /* \"#utility.yul\":417:539   */\n    tag_61:\n        /* \"#utility.yul\":490:514   */\n      tag_87\n        /* \"#utility.yul\":508:513   */\n      dup2\n        /* \"#utility.yul\":490:514   */\n      tag_60\n      jump\t// in\n    tag_87:\n        /* \"#utility.yul\":483:488   */\n      dup2\n        /* \"#utility.yul\":480:515   */\n      eq\n        /* \"#utility.yul\":470:533   */\n      tag_88\n      jumpi\n        /* \"#utility.yul\":529:530   */\n      0x00\n        /* \"#utility.yul\":526:527   */\n      0x00\n        /* \"#utility.yul\":519:531   */\n      revert\n        /* \"#utility.yul\":470:533   */\n    tag_88:\n        /* \"#utility.yul\":417:539   */\n      pop\n      jump\t// out\n        /* \"#utility.yul\":545:684   */\n    tag_62:\n        /* \"#utility.yul\":591:596   */\n      0x00\n        /* \"#utility.yul\":629:635   */\n      dup2\n        /* \"#utility.yul\":616:636   */\n      calldataload\n        /* \"#utility.yul\":607:636   */\n      swap1\n      pop\n        /* \"#utility.yul\":645:678   */\n      tag_90\n        /* \"#utility.yul\":672:677   */\n      dup2\n        /* \"#utility.yul\":645:678   */\n      tag_61\n      jump\t// in\n    tag_90:\n        /* \"#utility.yul\":545:684   */\n      swap3\n      swap2\n      pop\n      pop\n      jump\t// out\n        /* \"#utility.yul\":690:1019   */\n    tag_9:\n        /* \"#utility.yul\":749:755   */\n      0x00\n        /* \"#utility.yul\":798:800   */\n      0x20\n        /* \"#utility.yul\":786:795   */\n      dup3\n        /* \"#utility.yul\":777:784   */\n      dup5\n        /* \"#utility.yul\":773:796   */\n      sub\n        /* \"#utility.yul\":769:801   */\n      slt\n        /* \"#utility.yul\":766:885   */\n      iszero\n      tag_92\n      jumpi\n        /* \"#utility.yul\":804:883   */\n      tag_93\n      tag_58\n      jump\t// in\n    tag_93:\n        /* \"#utility.yul\":766:885   */\n    tag_92:\n        /* \"#utility.yul\":924:925   */\n      0x00\n        /* \"#utility.yul\":949:1002   */\n      tag_94\n        /* \"#utility.yul\":994:1001   */\n      dup5\n        /* \"#utility.yul\":985:991   */\n      dup3\n        /* \"#utility.yul\":974:983   */\n      dup6\n        /* \"#utility.yul\":970:992   */\n      add\n        /* \"#utility.yul\":949:1002   */\n      tag_62\n      jump\t// in\n    tag_94:\n        /* \"#utility.yul\":939:1002   */\n      swap2\n      pop\n        /* \"#utility.yul\":895:1012   */\n      pop\n        /* \"#utility.yul\":690:1019   */\n      swap3\n      swap2\n      pop\n      pop\n      jump\t// out\n        /* \"#utility.yul\":1025:1115   */\n    tag_63:\n        /* \"#utility.yul\":1059:1066   */\n      0x00\n        /* \"#utility.yul\":1102:1107   */\n      dup2\n        /* \"#utility.yul\":1095:1108   */\n      iszero\n        /* \"#utility.yul\":1088:1109   */\n      iszero\n        /* \"#utility.yul\":1077:1109   */\n      swap1\n      pop\n        /* \"#utility.yul\":1025:1115   */\n      swap2\n      swap1\n      pop\n      jump\t// out\n        /* \"#utility.yul\":1121:1230   */\n    tag_64:\n        /* \"#utility.yul\":1202:1223   */\n      tag_97\n        /* \"#utility.yul\":1217:1222   */\n      dup2\n        /* \"#utility.yul\":1202:1223   */\n      tag_63\n      jump\t// in\n    tag_97:\n        /* \"#utility.yul\":1197:1200   */\n      dup3\n        /* \"#utility.yul\":1190:1224   */\n      mstore\n        /* \"#utility.yul\":1121:1230   */\n      pop\n      pop\n      jump\t// out\n        /* \"#utility.yul\":1236:1446   */\n    tag_12:\n        /* \"#utility.yul\":1323:1327   */\n      0x00\n        /* \"#utility.yul\":1361:1363   */\n      0x20\n        /* \"#utility.yul\":1350:1359   */\n      dup3\n        /* \"#utility.yul\":1346:1364   */\n      add\n        /* \"#utility.yul\":1338:1364   */\n      swap1\n      pop\n        /* \"#utility.yul\":1374:1439   */\n      tag_99\n        /* \"#utility.yul\":1436:1437   */\n      0x00\n        /* \"#utility.yul\":1425:1434   */\n      dup4\n        /* \"#utility.yul\":1421:1438   */\n      add\n        /* \"#utility.yul\":1412:1418   */\n      dup5\n        /* \"#utility.yul\":1374:1439   */\n      tag_64\n      jump\t// in\n    tag_99:\n        /* \"#utility.yul\":1236:1446   */\n      swap3\n      swap2\n      pop\n      pop\n      jump\t// out\n        /* \"#utility.yul\":1452:1578   */\n    tag_65:\n        /* \"#utility.yul\":1489:1496   */\n      0x00\n        /* \"#utility.yul\":1529:1571   */\n      0xffffffffffffffffffffffffffffffffffffffff\n        /* \"#utility.yul\":1522:1527   */\n      dup3\n        /* \"#utility.yul\":1518:1572   */\n      and\n        /* \"#utility.yul\":1507:1572   */\n      swap1\n      pop\n        /* \"#utility.yul\":1452:1578   */\n      swap2\n      swap1\n      pop\n      jump\t// out\n        /* \"#utility.yul\":1584:1680   */\n    tag_66:\n        /* \"#utility.yul\":1621:1628   */\n      0x00\n        /* \"#utility.yul\":1650:1674   */\n      tag_102\n        /* \"#utility.yul\":1668:1673   */\n      dup3\n        /* \"#utility.yul\":1650:1674   */\n      tag_65\n      jump\t// in\n    tag_102:\n        /* \"#utility.yul\":1639:1674   */\n      swap1\n      pop\n        /* \"#utility.yul\":1584:1680   */\n      swap2\n      swap1\n      pop\n      jump\t// out\n        /* \"#utility.yul\":1686:1808   */\n    tag_67:\n        /* \"#utility.yul\":1759:1783   */\n      tag_104\n        /* \"#utility.yul\":1777:1782   */\n      dup2\n        /* \"#utility.yul\":1759:1783   */\n      tag_66\n      jump\t// in\n    tag_104:\n        /* \"#utility.yul\":1752:1757   */\n      dup2\n        /* \"#utility.yul\":1749:1784   */\n      eq\n        /* \"#utility.yul\":1739:1802   */\n      tag_105\n      jumpi\n        /* \"#utility.yul\":1798:1799   */\n      0x00\n        /* \"#utility.yul\":1795:1796   */\n      0x00\n        /* \"#utility.yul\":1788:1800   */\n      revert\n        /* \"#utility.yul\":1739:1802   */\n    tag_105:\n        /* \"#utility.yul\":1686:1808   */\n      pop\n      jump\t// out\n        /* \"#utility.yul\":1814:1953   */\n    tag_68:\n        /* \"#utility.yul\":1860:1865   */\n      0x00\n        /* \"#utility.yul\":1898:1904   */\n      dup2\n        /* \"#utility.yul\":1885:1905   */\n      calldataload\n        /* \"#utility.yul\":1876:1905   */\n      swap1\n      pop\n        /* \"#utility.yul\":1914:1947   */\n      tag_107\n        /* \"#utility.yul\":1941:1946   */\n      dup2\n        /* \"#utility.yul\":1914:1947   */\n      tag_67\n      jump\t// in\n    tag_107:\n        /* \"#utility.yul\":1814:1953   */\n      swap3\n      swap2\n      pop\n      pop\n      jump\t// out\n        /* \"#utility.yul\":1959:2288   */\n    tag_19:\n        /* \"#utility.yul\":2018:2024   */\n      0x00\n        /* \"#utility.yul\":2067:2069   */\n      0x20\n        /* \"#utility.yul\":2055:2064   */\n      dup3\n        /* \"#utility.yul\":2046:2053   */\n      dup5\n        /* \"#utility.yul\":2042:2065   */\n      sub\n        /* \"#utility.yul\":2038:2070   */\n      slt\n        /* \"#utility.yul\":2035:2154   */\n      iszero\n      tag_109\n      jumpi\n        /* \"#utility.yul\":2073:2152   */\n      tag_110\n      tag_58\n      jump\t// in\n    tag_110:\n        /* \"#utility.yul\":2035:2154   */\n    tag_109:\n        /* \"#utility.yul\":2193:2194   */\n      0x00\n        /* \"#utility.yul\":2218:2271   */\n      tag_111\n        /* \"#utility.yul\":2263:2270   */\n      dup5\n        /* \"#utility.yul\":2254:2260   */\n      dup3\n        /* \"#utility.yul\":2243:2252   */\n      dup6\n        /* \"#utility.yul\":2239:2261   */\n      add\n        /* \"#utility.yul\":2218:2271   */\n      tag_68\n      jump\t// in\n    tag_111:\n        /* \"#utility.yul\":2208:2271   */\n      swap2\n      pop\n        /* \"#utility.yul\":2164:2281   */\n      pop\n        /* \"#utility.yul\":1959:2288   */\n      swap3\n      swap2\n      pop\n      pop\n      jump\t// out\n        /* \"#utility.yul\":2294:2463   */\n    tag_69:\n        /* \"#utility.yul\":2378:2389   */\n      0x00\n        /* \"#utility.yul\":2412:2418   */\n      dup3\n        /* \"#utility.yul\":2407:2410   */\n      dup3\n        /* \"#utility.yul\":2400:2419   */\n      mstore\n        /* \"#utility.yul\":2452:2456   */\n      0x20\n        /* \"#utility.yul\":2447:2450   */\n      dup3\n        /* \"#utility.yul\":2443:2457   */\n      add\n        /* \"#utility.yul\":2428:2457   */\n      swap1\n      pop\n        /* \"#utility.yul\":2294:2463   */\n      swap3\n      swap2\n      pop\n      pop\n      jump\t// out\n        /* \"#utility.yul\":2469:2635   */\n    tag_70:\n        /* \"#utility.yul\":2609:2627   */\n      0x4e6f7420656e6f7567682066756e647300000000000000000000000000000000\n        /* \"#utility.yul\":2605:2606   */\n      0x00\n        /* \"#utility.yul\":2597:2603   */\n      dup3\n        /* \"#utility.yul\":2593:2607   */\n      add\n        /* \"#utility.yul\":2586:2628   */\n      mstore\n        /* \"#utility.yul\":2469:2635   */\n      pop\n      jump\t// out\n        /* \"#utility.yul\":2641:3007   */\n    tag_71:\n        /* \"#utility.yul\":2783:2786   */\n      0x00\n        /* \"#utility.yul\":2804:2871   */\n      tag_115\n        /* \"#utility.yul\":2868:2870   */\n      0x10\n        /* \"#utility.yul\":2863:2866   */\n      dup4\n        /* \"#utility.yul\":2804:2871   */\n      tag_69\n      jump\t// in\n    tag_115:\n        /* \"#utility.yul\":2797:2871   */\n      swap2\n      pop\n        /* \"#utility.yul\":2880:2973   */\n      tag_116\n        /* \"#utility.yul\":2969:2972   */\n      dup3\n        /* \"#utility.yul\":2880:2973   */\n      tag_70\n      jump\t// in\n    tag_116:\n        /* \"#utility.yul\":2998:3000   */\n      0x20\n        /* \"#utility.yul\":2993:2996   */\n      dup3\n        /* \"#utility.yul\":2989:3001   */\n      add\n        /* \"#utility.yul\":2982:3001   */\n      swap1\n      pop\n        /* \"#utility.yul\":2641:3007   */\n      swap2\n      swap1\n      pop\n      jump\t// out\n        /* \"#utility.yul\":3013:3432   */\n    tag_27:\n        /* \"#utility.yul\":3179:3183   */\n      0x00\n        /* \"#utility.yul\":3217:3219   */\n      0x20\n        /* \"#utility.yul\":3206:3215   */\n      dup3\n        /* \"#utility.yul\":3202:3220   */\n      add\n        /* \"#utility.yul\":3194:3220   */\n      swap1\n      pop\n        /* \"#utility.yul\":3266:3275   */\n      dup2\n        /* \"#utility.yul\":3260:3264   */\n      dup2\n        /* \"#utility.yul\":3256:3276   */\n      sub\n        /* \"#utility.yul\":3252:3253   */\n      0x00\n        /* \"#utility.yul\":3241:3250   */\n      dup4\n        /* \"#utility.yul\":3237:3254   */\n      add\n        /* \"#utility.yul\":3230:3277   */\n      mstore\n        /* \"#utility.yul\":3294:3425   */\n      tag_118\n        /* \"#utility.yul\":3420:3424   */\n      dup2\n        /* \"#utility.yul\":3294:3425   */\n      tag_71\n      jump\t// in\n    tag_118:\n        /* \"#utility.yul\":3286:3425   */\n      swap1\n      pop\n        /* \"#utility.yul\":3013:3432   */\n      swap2\n      swap1\n      pop\n      jump\t// out\n        /* \"#utility.yul\":3438:3618   */\n    tag_72:\n        /* \"#utility.yul\":3486:3563   */\n      0x4e487b7100000000000000000000000000000000000000000000000000000000\n        /* \"#utility.yul\":3483:3484   */\n      0x00\n        /* \"#utility.yul\":3476:3564   */\n      mstore\n        /* \"#utility.yul\":3583:3587   */\n      0x11\n        /* \"#utility.yul\":3580:3581   */\n      0x04\n        /* \"#utility.yul\":3573:3588   */\n      mstore\n        /* \"#utility.yul\":3607:3611   */\n      0x24\n        /* \"#utility.yul\":3604:3605   */\n      0x00\n        /* \"#utility.yul\":3597:3612   */\n      revert\n        /* \"#utility.yul\":3624:3818   */\n    tag_29:\n        /* \"#utility.yul\":3664:3668   */\n      0x00\n        /* \"#utility.yul\":3684:3704   */\n      tag_121\n        /* \"#utility.yul\":3702:3703   */\n      dup3\n        /* \"#utility.yul\":3684:3704   */\n      tag_60\n      jump\t// in\n    tag_121:\n        /* \"#utility.yul\":3679:3704   */\n      swap2\n      pop\n        /* \"#utility.yul\":3718:3738   */\n      tag_122\n        /* \"#utility.yul\":3736:3737   */\n      dup4\n        /* \"#utility.yul\":3718:3738   */\n      tag_60\n      jump\t// in\n    tag_122:\n        /* \"#utility.yul\":3713:3738   */\n      swap3\n      pop\n        /* \"#utility.yul\":3762:3763   */\n      dup3\n        /* \"#utility.yul\":3759:3760   */\n      dup3\n        /* \"#utility.yul\":3755:3764   */\n      sub\n        /* \"#utility.yul\":3747:3764   */\n      swap1\n      pop\n        /* \"#utility.yul\":3786:3787   */\n      dup2\n        /* \"#utility.yul\":3780:3784   */\n      dup2\n        /* \"#utility.yul\":3777:3788   */\n      gt\n        /* \"#utility.yul\":3774:3811   */\n      iszero\n      tag_123\n      jumpi\n        /* \"#utility.yul\":3791:3809   */\n      tag_124\n      tag_72\n      jump\t// in\n    tag_124:\n        /* \"#utility.yul\":3774:3811   */\n    tag_123:\n        /* \"#utility.yul\":3624:3818   */\n      swap3\n      swap2\n      pop\n      pop\n      jump\t// out\n        /* \"#utility.yul\":3824:3938   */\n    tag_73:\n      pop\n      jump\t// out\n        /* \"#utility.yul\":3944:4308   */\n    tag_74:\n        /* \"#utility.yul\":4086:4089   */\n      0x00\n        /* \"#utility.yul\":4107:4173   */\n      tag_127\n        /* \"#utility.yul\":4171:4172   */\n      0x00\n        /* \"#utility.yul\":4166:4169   */\n      dup4\n        /* \"#utility.yul\":4107:4173   */\n      tag_69\n      jump\t// in\n    tag_127:\n        /* \"#utility.yul\":4100:4173   */\n      swap2\n      pop\n        /* \"#utility.yul\":4182:4275   */\n      tag_128\n        /* \"#utility.yul\":4271:4274   */\n      dup3\n        /* \"#utility.yul\":4182:4275   */\n      tag_73\n      jump\t// in\n    tag_128:\n        /* \"#utility.yul\":4300:4301   */\n      0x00\n        /* \"#utility.yul\":4295:4298   */\n      dup3\n        /* \"#utility.yul\":4291:4302   */\n      add\n        /* \"#utility.yul\":4284:4302   */\n      swap1\n      pop\n        /* \"#utility.yul\":3944:4308   */\n      swap2\n      swap1\n      pop\n      jump\t// out\n        /* \"#utility.yul\":4314:4733   */\n    tag_34:\n        /* \"#utility.yul\":4480:4484   */\n      0x00\n        /* \"#utility.yul\":4518:4520   */\n      0x20\n        /* \"#utility.yul\":4507:4516   */\n      dup3\n        /* \"#utility.yul\":4503:4521   */\n      add\n        /* \"#utility.yul\":4495:4521   */\n      swap1\n      pop\n        /* \"#utility.yul\":4567:4576   */\n      dup2\n        /* \"#utility.yul\":4561:4565   */\n      dup2\n        /* \"#utility.yul\":4557:4577   */\n      sub\n        /* \"#utility.yul\":4553:4554   */\n      0x00\n        /* \"#utility.yul\":4542:4551   */\n      dup4\n        /* \"#utility.yul\":4538:4555   */\n      add\n        /* \"#utility.yul\":4531:4578   */\n      mstore\n        /* \"#utility.yul\":4595:4726   */\n      tag_130\n        /* \"#utility.yul\":4721:4725   */\n      dup2\n        /* \"#utility.yul\":4595:4726   */\n      tag_74\n      jump\t// in\n    tag_130:\n        /* \"#utility.yul\":4587:4726   */\n      swap1\n      pop\n        /* \"#utility.yul\":4314:4733   */\n      swap2\n      swap1\n      pop\n      jump\t// out\n        /* \"#utility.yul\":4739:4902   */\n    tag_75:\n        /* \"#utility.yul\":4879:4894   */\n      0x4d7573742073656e642045544800000000000000000000000000000000000000\n        /* \"#utility.yul\":4875:4876   */\n      0x00\n        /* \"#utility.yul\":4867:4873   */\n      dup3\n        /* \"#utility.yul\":4863:4877   */\n      add\n        /* \"#utility.yul\":4856:4895   */\n      mstore\n        /* \"#utility.yul\":4739:4902   */\n      pop\n      jump\t// out\n        /* \"#utility.yul\":4908:5274   */\n    tag_76:\n        /* \"#utility.yul\":5050:5053   */\n      0x00\n        /* \"#utility.yul\":5071:5138   */\n      tag_133\n        /* \"#utility.yul\":5135:5137   */\n      0x0d\n        /* \"#utility.yul\":5130:5133   */\n      dup4\n        /* \"#utility.yul\":5071:5138   */\n      tag_69\n      jump\t// in\n    tag_133:\n        /* \"#utility.yul\":5064:5138   */\n      swap2\n      pop\n        /* \"#utility.yul\":5147:5240   */\n      tag_134\n        /* \"#utility.yul\":5236:5239   */\n      dup3\n        /* \"#utility.yul\":5147:5240   */\n      tag_75\n      jump\t// in\n    tag_134:\n        /* \"#utility.yul\":5265:5267   */\n      0x20\n        /* \"#utility.yul\":5260:5263   */\n      dup3\n        /* \"#utility.yul\":5256:5268   */\n      add\n        /* \"#utility.yul\":5249:5268   */\n      swap1\n      pop\n        /* \"#utility.yul\":4908:5274   */\n      swap2\n      swap1\n      pop\n      jump\t// out\n        /* \"#utility.yul\":5280:5699   */\n    tag_40:\n        /* \"#utility.yul\":5446:5450   */\n      0x00\n        /* \"#utility.yul\":5484:5486   */\n      0x20\n        /* \"#utility.yul\":5473:5482   */\n      dup3\n        /* \"#utility.yul\":5469:5487   */\n      add\n        /* \"#utility.yul\":5461:5487   */\n      swap1\n      pop\n        /* \"#utility.yul\":5533:5542   */\n      dup2\n        /* \"#utility.yul\":5527:5531   */\n      dup2\n        /* \"#utility.yul\":5523:5543   */\n      sub\n        /* \"#utility.yul\":5519:5520   */\n      0x00\n        /* \"#utility.yul\":5508:5517   */\n      dup4\n        /* \"#utility.yul\":5504:5521   */\n      add\n        /* \"#utility.yul\":5497:5544   */\n      mstore\n        /* \"#utility.yul\":5561:5692   */\n      tag_136\n        /* \"#utility.yul\":5687:5691   */\n      dup2\n        /* \"#utility.yul\":5561:5692   */\n      tag_76\n      jump\t// in\n    tag_136:\n        /* \"#utility.yul\":5553:5692   */\n      swap1\n      pop\n        /* \"#utility.yul\":5280:5699   */\n      swap2\n      swap1\n      pop\n      jump\t// out\n        /* \"#utility.yul\":5705:5896   */\n    tag_42:\n        /* \"#utility.yul\":5745:5748   */\n      0x00\n        /* \"#utility.yul\":5764:5784   */\n      tag_138\n        /* \"#utility.yul\":5782:5783   */\n      dup3\n        /* \"#utility.yul\":5764:5784   */\n      tag_60\n      jump\t// in\n    tag_138:\n        /* \"#utility.yul\":5759:5784   */\n      swap2\n      pop\n        /* \"#utility.yul\":5798:5818   */\n      tag_139\n        /* \"#utility.yul\":5816:5817   */\n      dup4\n        /* \"#utility.yul\":5798:5818   */\n      tag_60\n      jump\t// in\n    tag_139:\n        /* \"#utility.yul\":5793:5818   */\n      swap3\n      pop\n        /* \"#utility.yul\":5841:5842   */\n      dup3\n        /* \"#utility.yul\":5838:5839   */\n      dup3\n        /* \"#utility.yul\":5834:5843   */\n      add\n        /* \"#utility.yul\":5827:5843   */\n      swap1\n      pop\n        /* \"#utility.yul\":5862:5865   */\n      dup1\n        /* \"#utility.yul\":5859:5860   */\n      dup3\n        /* \"#utility.yul\":5856:5866   */\n      gt\n        /* \"#utility.yul\":5853:5889   */\n      iszero\n      tag_140\n      jumpi\n        /* \"#utility.yul\":5869:5887   */\n      tag_141\n      tag_72\n      jump\t// in\n    tag_141:\n        /* \"#utility.yul\":5853:5889   */\n    tag_140:\n        /* \"#utility.yul\":5705:5896   */\n      swap3\n      swap2\n      pop\n      pop\n      jump\t// out\n        /* \"#utility.yul\":5902:6049   */\n    tag_77:\n        /* \"#utility.yul\":6003:6014   */\n      0x00\n        /* \"#utility.yul\":6040:6043   */\n      dup2\n        /* \"#utility.yul\":6025:6043   */\n      swap1\n      pop\n        /* \"#utility.yul\":5902:6049   */\n      swap3\n      swap2\n      pop\n      pop\n      jump\t// out\n        /* \"#utility.yul\":6055:6453   */\n    tag_78:\n        /* \"#utility.yul\":6214:6217   */\n      0x00\n        /* \"#utility.yul\":6235:6318   */\n      tag_144\n        /* \"#utility.yul\":6316:6317   */\n      0x00\n        /* \"#utility.yul\":6311:6314   */\n      dup4\n        /* \"#utility.yul\":6235:6318   */\n      tag_77\n      jump\t// in\n    tag_144:\n        /* \"#utility.yul\":6228:6318   */\n      swap2\n      pop\n        /* \"#utility.yul\":6327:6420   */\n      tag_145\n        /* \"#utility.yul\":6416:6419   */\n      dup3\n        /* \"#utility.yul\":6327:6420   */\n      tag_73\n      jump\t// in\n    tag_145:\n        /* \"#utility.yul\":6445:6446   */\n      0x00\n        /* \"#utility.yul\":6440:6443   */\n      dup3\n        /* \"#utility.yul\":6436:6447   */\n      add\n        /* \"#utility.yul\":6429:6447   */\n      swap1\n      pop\n        /* \"#utility.yul\":6055:6453   */\n      swap2\n      swap1\n      pop\n      jump\t// out\n        /* \"#utility.yul\":6459:6838   */\n    tag_50:\n        /* \"#utility.yul\":6643:6646   */\n      0x00\n        /* \"#utility.yul\":6665:6812   */\n      tag_147\n        /* \"#utility.yul\":6808:6811   */\n      dup3\n        /* \"#utility.yul\":6665:6812   */\n      tag_78\n      jump\t// in\n    tag_147:\n        /* \"#utility.yul\":6658:6812   */\n      swap2\n      pop\n        /* \"#utility.yul\":6829:6832   */\n      dup2\n        /* \"#utility.yul\":6822:6832   */\n      swap1\n      pop\n        /* \"#utility.yul\":6459:6838   */\n      swap2\n      swap1\n      pop\n      jump\t// out\n        /* \"#utility.yul\":6844:7014   */\n    tag_79:\n        /* \"#utility.yul\":6984:7006   */\n      0x496e76616c696420455448207472616e73666572000000000000000000000000\n        /* \"#utility.yul\":6980:6981   */\n      0x00\n        /* \"#utility.yul\":6972:6978   */\n      dup3\n        /* \"#utility.yul\":6968:6982   */\n      add\n        /* \"#utility.yul\":6961:7007   */\n      mstore\n        /* \"#utility.yul\":6844:7014   */\n      pop\n      jump\t// out\n        /* \"#utility.yul\":7020:7386   */\n    tag_80:\n        /* \"#utility.yul\":7162:7165   */\n      0x00\n        /* \"#utility.yul\":7183:7250   */\n      tag_150\n        /* \"#utility.yul\":7247:7249   */\n      0x14\n        /* \"#utility.yul\":7242:7245   */\n      dup4\n        /* \"#utility.yul\":7183:7250   */\n      tag_69\n      jump\t// in\n    tag_150:\n        /* \"#utility.yul\":7176:7250   */\n      swap2\n      pop\n        /* \"#utility.yul\":7259:7352   */\n      tag_151\n        /* \"#utility.yul\":7348:7351   */\n      dup3\n        /* \"#utility.yul\":7259:7352   */\n      tag_79\n      jump\t// in\n    tag_151:\n        /* \"#utility.yul\":7377:7379   */\n      0x20\n        /* \"#utility.yul\":7372:7375   */\n      dup3\n        /* \"#utility.yul\":7368:7380   */\n      add\n        /* \"#utility.yul\":7361:7380   */\n      swap1\n      pop\n        /* \"#utility.yul\":7020:7386   */\n      swap2\n      swap1\n      pop\n      jump\t// out\n        /* \"#utility.yul\":7392:7811   */\n    tag_56:\n        /* \"#utility.yul\":7558:7562   */\n      0x00\n        /* \"#utility.yul\":7596:7598   */\n      0x20\n        /* \"#utility.yul\":7585:7594   */\n      dup3\n        /* \"#utility.yul\":7581:7599   */\n      add\n        /* \"#utility.yul\":7573:7599   */\n      swap1\n      pop\n        /* \"#utility.yul\":7645:7654   */\n      dup2\n        /* \"#utility.yul\":7639:7643   */\n      dup2\n        /* \"#utility.yul\":7635:7655   */\n      sub\n        /* \"#utility.yul\":7631:7632   */\n      0x00\n        /* \"#utility.yul\":7620:7629   */\n      dup4\n        /* \"#utility.yul\":7616:7633   */\n      add\n        /* \"#utility.yul\":7609:7656   */\n      mstore\n        /* \"#utility.yul\":7673:7804   */\n      tag_153\n        /* \"#utility.yul\":7799:7803   */\n      dup2\n        /* \"#utility.yul\":7673:7804   */\n      tag_80\n      jump\t// in\n    tag_153:\n        /* \"#utility.yul\":7665:7804   */\n      swap1\n      pop\n        /* \"#utility.yul\":7392:7811   */\n      swap2\n      swap1\n      pop\n      jump\t// out\n\n    auxdata: 0xa26469706673582212205d7b45b3e16c49b3cd5951ba76cd6c0769c2cc5ce3657cb390eaaa5eb01d4f0764736f6c634300081e0033\n}\n",
				"bytecode": {
					"linkReferences": {},
					"object": "60a0604052348015600e575f5ffd5b503373ffffffffffffffffffffffffffffffffffffffff1660808173ffffffffffffffffffffffffffffffffffffffff16815250506080516107956100585f395f50506107955ff3fe60806040526004361061003e575f3560e01c8063155dd5ee1461004257806349649fbf1461007e578063919747fb146100a8578063dc29f1de146100c4575b5f5ffd5b34801561004d575f5ffd5b5061006860048036038101906100639190610422565b6100ce565b6040516100759190610467565b60405180910390f35b348015610089575f5ffd5b506100926101fd565b60405161009f9190610467565b60405180910390f35b6100c260048036038101906100bd91906104da565b610248565b005b6100cc6102df565b005b5f5f8211801561011a5750815f5f3373ffffffffffffffffffffffffffffffffffffffff1673ffffffffffffffffffffffffffffffffffffffff1681526020019081526020015f205410155b610159576040517f08c379a00000000000000000000000000000000000000000000000000000000081526004016101509061055f565b60405180910390fd5b815f5f3373ffffffffffffffffffffffffffffffffffffffff1673ffffffffffffffffffffffffffffffffffffffff1681526020019081526020015f205f8282546101a491906105aa565b925050819055506101b582336102ea565b6101f4576040517f08c379a00000000000000000000000000000000000000000000000000000000081526004016101eb90610600565b60405180910390fd5b60019050919050565b5f6102435f5f3373ffffffffffffffffffffffffffffffffffffffff1673ffffffffffffffffffffffffffffffffffffffff1681526020019081526020015f20546100ce565b905090565b5f341161028a576040517f08c379a000000000000000000000000000000000000000000000000000000000815260040161028190610668565b60405180910390fd5b345f5f8373ffffffffffffffffffffffffffffffffffffffff1673ffffffffffffffffffffffffffffffffffffffff1681526020019081526020015f205f8282546102d59190610686565b9250508190555050565b6102e833610248565b565b5f8247101580156102fa57505f83115b610339576040517f08c379a00000000000000000000000000000000000000000000000000000000081526004016103309061055f565b60405180910390fd5b5f8273ffffffffffffffffffffffffffffffffffffffff168460405161035e906106e3565b5f6040518083038185875af1925050503d805f8114610398576040519150601f19603f3d011682016040523d82523d5f602084013e61039d565b606091505b50509050806103e1576040517f08c379a00000000000000000000000000000000000000000000000000000000081526004016103d890610741565b60405180910390fd5b8091505092915050565b5f5ffd5b5f819050919050565b610401816103ef565b811461040b575f5ffd5b50565b5f8135905061041c816103f8565b92915050565b5f60208284031215610437576104366103eb565b5b5f6104448482850161040e565b91505092915050565b5f8115159050919050565b6104618161044d565b82525050565b5f60208201905061047a5f830184610458565b92915050565b5f73ffffffffffffffffffffffffffffffffffffffff82169050919050565b5f6104a982610480565b9050919050565b6104b98161049f565b81146104c3575f5ffd5b50565b5f813590506104d4816104b0565b92915050565b5f602082840312156104ef576104ee6103eb565b5b5f6104fc848285016104c6565b91505092915050565b5f82825260208201905092915050565b7f4e6f7420656e6f7567682066756e6473000000000000000000000000000000005f82015250565b5f610549601083610505565b915061055482610515565b602082019050919050565b5f6020820190508181035f8301526105768161053d565b9050919050565b7f4e487b71000000000000000000000000000000000000000000000000000000005f52601160045260245ffd5b5f6105b4826103ef565b91506105bf836103ef565b92508282039050818111156105d7576105d661057d565b5b92915050565b50565b5f6105eb5f83610505565b91506105f6826105dd565b5f82019050919050565b5f6020820190508181035f830152610617816105e0565b9050919050565b7f4d7573742073656e6420455448000000000000000000000000000000000000005f82015250565b5f610652600d83610505565b915061065d8261061e565b602082019050919050565b5f6020820190508181035f83015261067f81610646565b9050919050565b5f610690826103ef565b915061069b836103ef565b92508282019050808211156106b3576106b261057d565b5b92915050565b5f81905092915050565b5f6106ce5f836106b9565b91506106d9826105dd565b5f82019050919050565b5f6106ed826106c3565b9150819050919050565b7f496e76616c696420455448207472616e736665720000000000000000000000005f82015250565b5f61072b601483610505565b9150610736826106f7565b602082019050919050565b5f6020820190508181035f8301526107588161071f565b905091905056fea26469706673582212205d7b45b3e16c49b3cd5951ba76cd6c0769c2cc5ce3657cb390eaaa5eb01d4f0764736f6c634300081e0033",
					"opcodes": "PUSH1 0xA0 PUSH1 0x40 MSTORE CALLVALUE DUP1 ISZERO PUSH1 0xE JUMPI PUSH0 PUSH0 REVERT JUMPDEST POP CALLER PUSH20 0xFFFFFFFFFFFFFFFFFFFFFFFFFFFFFFFFFFFFFFFF AND PUSH1 0x80 DUP2 PUSH20 0xFFFFFFFFFFFFFFFFFFFFFFFFFFFFFFFFFFFFFFFF AND DUP2 MSTORE POP POP PUSH1 0x80 MLOAD PUSH2 0x795 PUSH2 0x58 PUSH0 CODECOPY PUSH0 POP POP PUSH2 0x795 PUSH0 RETURN INVALID PUSH1 0x80 PUSH1 0x40 MSTORE PUSH1 0x4 CALLDATASIZE LT PUSH2 0x3E JUMPI PUSH0 CALLDATALOAD PUSH1 0xE0 SHR DUP1 PUSH4 0x155DD5EE EQ PUSH2 0x42 JUMPI DUP1 PUSH4 0x49649FBF EQ PUSH2 0x7E JUMPI DUP1 PUSH4 0x919747FB EQ PUSH2 0xA8 JUMPI DUP1 PUSH4 0xDC29F1DE EQ PUSH2 0xC4 JUMPI JUMPDEST PUSH0 PUSH0 REVERT JUMPDEST CALLVALUE DUP1 ISZERO PUSH2 0x4D JUMPI PUSH0 PUSH0 REVERT JUMPDEST POP PUSH2 0x68 PUSH1 0x4 DUP1 CALLDATASIZE SUB DUP2 ADD SWAP1 PUSH2 0x63 SWAP2 SWAP1 PUSH2 0x422 JUMP JUMPDEST PUSH2 0xCE JUMP JUMPDEST PUSH1 0x40 MLOAD PUSH2 0x75 SWAP2 SWAP1 PUSH2 0x467 JUMP JUMPDEST PUSH1 0x40 MLOAD DUP1 SWAP2 SUB SWAP1 RETURN JUMPDEST CALLVALUE DUP1 ISZERO PUSH2 0x89 JUMPI PUSH0 PUSH0 REVERT JUMPDEST POP PUSH2 0x92 PUSH2 0x1FD JUMP JUMPDEST PUSH1 0x40 MLOAD PUSH2 0x9F SWAP2 SWAP1 PUSH2 0x467 JUMP JUMPDEST PUSH1 0x40 MLOAD DUP1 SWAP2 SUB SWAP1 RETURN JUMPDEST PUSH2 0xC2 PUSH1 0x4 DUP1 CALLDATASIZE SUB DUP2 ADD SWAP1 PUSH2 0xBD SWAP2 SWAP1 PUSH2 0x4DA JUMP JUMPDEST PUSH2 0x248 JUMP JUMPDEST STOP JUMPDEST PUSH2 0xCC PUSH2 0x2DF JUMP JUMPDEST STOP JUMPDEST PUSH0 PUSH0 DUP3 GT DUP1 ISZERO PUSH2 0x11A JUMPI POP DUP2 PUSH0 PUSH0 CALLER PUSH20 0xFFFFFFFFFFFFFFFFFFFFFFFFFFFFFFFFFFFFFFFF AND PUSH20 0xFFFFFFFFFFFFFFFFFFFFFFFFFFFFFFFFFFFFFFFF AND DUP2 MSTORE PUSH1 0x20 ADD SWAP1 DUP2 MSTORE PUSH1 0x20 ADD PUSH0 KECCAK256 SLOAD LT ISZERO JUMPDEST PUSH2 0x159 JUMPI PUSH1 0x40 MLOAD PUSH32 0x8C379A000000000000000000000000000000000000000000000000000000000 DUP2 MSTORE PUSH1 0x4 ADD PUSH2 0x150 SWAP1 PUSH2 0x55F JUMP JUMPDEST PUSH1 0x40 MLOAD DUP1 SWAP2 SUB SWAP1 REVERT JUMPDEST DUP2 PUSH0 PUSH0 CALLER PUSH20 0xFFFFFFFFFFFFFFFFFFFFFFFFFFFFFFFFFFFFFFFF AND PUSH20 0xFFFFFFFFFFFFFFFFFFFFFFFFFFFFFFFFFFFFFFFF AND DUP2 MSTORE PUSH1 0x20 ADD SWAP1 DUP2 MSTORE PUSH1 0x20 ADD PUSH0 KECCAK256 PUSH0 DUP3 DUP3 SLOAD PUSH2 0x1A4 SWAP2 SWAP1 PUSH2 0x5AA JUMP JUMPDEST SWAP3 POP POP DUP2 SWAP1 SSTORE POP PUSH2 0x1B5 DUP3 CALLER PUSH2 0x2EA JUMP JUMPDEST PUSH2 0x1F4 JUMPI PUSH1 0x40 MLOAD PUSH32 0x8C379A000000000000000000000000000000000000000000000000000000000 DUP2 MSTORE PUSH1 0x4 ADD PUSH2 0x1EB SWAP1 PUSH2 0x600 JUMP JUMPDEST PUSH1 0x40 MLOAD DUP1 SWAP2 SUB SWAP1 REVERT JUMPDEST PUSH1 0x1 SWAP1 POP SWAP2 SWAP1 POP JUMP JUMPDEST PUSH0 PUSH2 0x243 PUSH0 PUSH0 CALLER PUSH20 0xFFFFFFFFFFFFFFFFFFFFFFFFFFFFFFFFFFFFFFFF AND PUSH20 0xFFFFFFFFFFFFFFFFFFFFFFFFFFFFFFFFFFFFFFFF AND DUP2 MSTORE PUSH1 0x20 ADD SWAP1 DUP2 MSTORE PUSH1 0x20 ADD PUSH0 KECCAK256 SLOAD PUSH2 0xCE JUMP JUMPDEST SWAP1 POP SWAP1 JUMP JUMPDEST PUSH0 CALLVALUE GT PUSH2 0x28A JUMPI PUSH1 0x40 MLOAD PUSH32 0x8C379A000000000000000000000000000000000000000000000000000000000 DUP2 MSTORE PUSH1 0x4 ADD PUSH2 0x281 SWAP1 PUSH2 0x668 JUMP JUMPDEST PUSH1 0x40 MLOAD DUP1 SWAP2 SUB SWAP1 REVERT JUMPDEST CALLVALUE PUSH0 PUSH0 DUP4 PUSH20 0xFFFFFFFFFFFFFFFFFFFFFFFFFFFFFFFFFFFFFFFF AND PUSH20 0xFFFFFFFFFFFFFFFFFFFFFFFFFFFFFFFFFFFFFFFF AND DUP2 MSTORE PUSH1 0x20 ADD SWAP1 DUP2 MSTORE PUSH1 0x20 ADD PUSH0 KECCAK256 PUSH0 DUP3 DUP3 SLOAD PUSH2 0x2D5 SWAP2 SWAP1 PUSH2 0x686 JUMP JUMPDEST SWAP3 POP POP DUP2 SWAP1 SSTORE POP POP JUMP JUMPDEST PUSH2 0x2E8 CALLER PUSH2 0x248 JUMP JUMPDEST JUMP JUMPDEST PUSH0 DUP3 SELFBALANCE LT ISZERO DUP1 ISZERO PUSH2 0x2FA JUMPI POP PUSH0 DUP4 GT JUMPDEST PUSH2 0x339 JUMPI PUSH1 0x40 MLOAD PUSH32 0x8C379A000000000000000000000000000000000000000000000000000000000 DUP2 MSTORE PUSH1 0x4 ADD PUSH2 0x330 SWAP1 PUSH2 0x55F JUMP JUMPDEST PUSH1 0x40 MLOAD DUP1 SWAP2 SUB SWAP1 REVERT JUMPDEST PUSH0 DUP3 PUSH20 0xFFFFFFFFFFFFFFFFFFFFFFFFFFFFFFFFFFFFFFFF AND DUP5 PUSH1 0x40 MLOAD PUSH2 0x35E SWAP1 PUSH2 0x6E3 JUMP JUMPDEST PUSH0 PUSH1 0x40 MLOAD DUP1 DUP4 SUB DUP2 DUP6 DUP8 GAS CALL SWAP3 POP POP POP RETURNDATASIZE DUP1 PUSH0 DUP2 EQ PUSH2 0x398 JUMPI PUSH1 0x40 MLOAD SWAP2 POP PUSH1 0x1F NOT PUSH1 0x3F RETURNDATASIZE ADD AND DUP3 ADD PUSH1 0x40 MSTORE RETURNDATASIZE DUP3 MSTORE RETURNDATASIZE PUSH0 PUSH1 0x20 DUP5 ADD RETURNDATACOPY PUSH2 0x39D JUMP JUMPDEST PUSH1 0x60 SWAP2 POP JUMPDEST POP POP SWAP1 POP DUP1 PUSH2 0x3E1 JUMPI PUSH1 0x40 MLOAD PUSH32 0x8C379A000000000000000000000000000000000000000000000000000000000 DUP2 MSTORE PUSH1 0x4 ADD PUSH2 0x3D8 SWAP1 PUSH2 0x741 JUMP JUMPDEST PUSH1 0x40 MLOAD DUP1 SWAP2 SUB SWAP1 REVERT JUMPDEST DUP1 SWAP2 POP POP SWAP3 SWAP2 POP POP JUMP JUMPDEST PUSH0 PUSH0 REVERT JUMPDEST PUSH0 DUP2 SWAP1 POP SWAP2 SWAP1 POP JUMP JUMPDEST PUSH2 0x401 DUP2 PUSH2 0x3EF JUMP JUMPDEST DUP2 EQ PUSH2 0x40B JUMPI PUSH0 PUSH0 REVERT JUMPDEST POP JUMP JUMPDEST PUSH0 DUP2 CALLDATALOAD SWAP1 POP PUSH2 0x41C DUP2 PUSH2 0x3F8 JUMP JUMPDEST SWAP3 SWAP2 POP POP JUMP JUMPDEST PUSH0 PUSH1 0x20 DUP3 DUP5 SUB SLT ISZERO PUSH2 0x437 JUMPI PUSH2 0x436 PUSH2 0x3EB JUMP JUMPDEST JUMPDEST PUSH0 PUSH2 0x444 DUP5 DUP3 DUP6 ADD PUSH2 0x40E JUMP JUMPDEST SWAP2 POP POP SWAP3 SWAP2 POP POP JUMP JUMPDEST PUSH0 DUP2 ISZERO ISZERO SWAP1 POP SWAP2 SWAP1 POP JUMP JUMPDEST PUSH2 0x461 DUP2 PUSH2 0x44D JUMP JUMPDEST DUP3 MSTORE POP POP JUMP JUMPDEST PUSH0 PUSH1 0x20 DUP3 ADD SWAP1 POP PUSH2 0x47A PUSH0 DUP4 ADD DUP5 PUSH2 0x458 JUMP JUMPDEST SWAP3 SWAP2 POP POP JUMP JUMPDEST PUSH0 PUSH20 0xFFFFFFFFFFFFFFFFFFFFFFFFFFFFFFFFFFFFFFFF DUP3 AND SWAP1 POP SWAP2 SWAP1 POP JUMP JUMPDEST PUSH0 PUSH2 0x4A9 DUP3 PUSH2 0x480 JUMP JUMPDEST SWAP1 POP SWAP2 SWAP1 POP JUMP JUMPDEST PUSH2 0x4B9 DUP2 PUSH2 0x49F JUMP JUMPDEST DUP2 EQ PUSH2 0x4C3 JUMPI PUSH0 PUSH0 REVERT JUMPDEST POP JUMP JUMPDEST PUSH0 DUP2 CALLDATALOAD SWAP1 POP PUSH2 0x4D4 DUP2 PUSH2 0x4B0 JUMP JUMPDEST SWAP3 SWAP2 POP POP JUMP JUMPDEST PUSH0 PUSH1 0x20 DUP3 DUP5 SUB SLT ISZERO PUSH2 0x4EF JUMPI PUSH2 0x4EE PUSH2 0x3EB JUMP JUMPDEST JUMPDEST PUSH0 PUSH2 0x4FC DUP5 DUP3 DUP6 ADD PUSH2 0x4C6 JUMP JUMPDEST SWAP2 POP POP SWAP3 SWAP2 POP POP JUMP JUMPDEST PUSH0 DUP3 DUP3 MSTORE PUSH1 0x20 DUP3 ADD SWAP1 POP SWAP3 SWAP2 POP POP JUMP JUMPDEST PUSH32 0x4E6F7420656E6F7567682066756E647300000000000000000000000000000000 PUSH0 DUP3 ADD MSTORE POP JUMP JUMPDEST PUSH0 PUSH2 0x549 PUSH1 0x10 DUP4 PUSH2 0x505 JUMP JUMPDEST SWAP2 POP PUSH2 0x554 DUP3 PUSH2 0x515 JUMP JUMPDEST PUSH1 0x20 DUP3 ADD SWAP1 POP SWAP2 SWAP1 POP JUMP JUMPDEST PUSH0 PUSH1 0x20 DUP3 ADD SWAP1 POP DUP2 DUP2 SUB PUSH0 DUP4 ADD MSTORE PUSH2 0x576 DUP2 PUSH2 0x53D JUMP JUMPDEST SWAP1 POP SWAP2 SWAP1 POP JUMP JUMPDEST PUSH32 0x4E487B7100000000000000000000000000000000000000000000000000000000 PUSH0 MSTORE PUSH1 0x11 PUSH1 0x4 MSTORE PUSH1 0x24 PUSH0 REVERT JUMPDEST PUSH0 PUSH2 0x5B4 DUP3 PUSH2 0x3EF JUMP JUMPDEST SWAP2 POP PUSH2 0x5BF DUP4 PUSH2 0x3EF JUMP JUMPDEST SWAP3 POP DUP3 DUP3 SUB SWAP1 POP DUP2 DUP2 GT ISZERO PUSH2 0x5D7 JUMPI PUSH2 0x5D6 PUSH2 0x57D JUMP JUMPDEST JUMPDEST SWAP3 SWAP2 POP POP JUMP JUMPDEST POP JUMP JUMPDEST PUSH0 PUSH2 0x5EB PUSH0 DUP4 PUSH2 0x505 JUMP JUMPDEST SWAP2 POP PUSH2 0x5F6 DUP3 PUSH2 0x5DD JUMP JUMPDEST PUSH0 DUP3 ADD SWAP1 POP SWAP2 SWAP1 POP JUMP JUMPDEST PUSH0 PUSH1 0x20 DUP3 ADD SWAP1 POP DUP2 DUP2 SUB PUSH0 DUP4 ADD MSTORE PUSH2 0x617 DUP2 PUSH2 0x5E0 JUMP JUMPDEST SWAP1 POP SWAP2 SWAP1 POP JUMP JUMPDEST PUSH32 0x4D7573742073656E642045544800000000000000000000000000000000000000 PUSH0 DUP3 ADD MSTORE POP JUMP JUMPDEST PUSH0 PUSH2 0x652 PUSH1 0xD DUP4 PUSH2 0x505 JUMP JUMPDEST SWAP2 POP PUSH2 0x65D DUP3 PUSH2 0x61E JUMP JUMPDEST PUSH1 0x20 DUP3 ADD SWAP1 POP SWAP2 SWAP1 POP JUMP JUMPDEST PUSH0 PUSH1 0x20 DUP3 ADD SWAP1 POP DUP2 DUP2 SUB PUSH0 DUP4 ADD MSTORE PUSH2 0x67F DUP2 PUSH2 0x646 JUMP JUMPDEST SWAP1 POP SWAP2 SWAP1 POP JUMP JUMPDEST PUSH0 PUSH2 0x690 DUP3 PUSH2 0x3EF JUMP JUMPDEST SWAP2 POP PUSH2 0x69B DUP4 PUSH2 0x3EF JUMP JUMPDEST SWAP3 POP DUP3 DUP3 ADD SWAP1 POP DUP1 DUP3 GT ISZERO PUSH2 0x6B3 JUMPI PUSH2 0x6B2 PUSH2 0x57D JUMP JUMPDEST JUMPDEST SWAP3 SWAP2 POP POP JUMP JUMPDEST PUSH0 DUP2 SWAP1 POP SWAP3 SWAP2 POP POP JUMP JUMPDEST PUSH0 PUSH2 0x6CE PUSH0 DUP4 PUSH2 0x6B9 JUMP JUMPDEST SWAP2 POP PUSH2 0x6D9 DUP3 PUSH2 0x5DD JUMP JUMPDEST PUSH0 DUP3 ADD SWAP1 POP SWAP2 SWAP1 POP JUMP JUMPDEST PUSH0 PUSH2 0x6ED DUP3 PUSH2 0x6C3 JUMP JUMPDEST SWAP2 POP DUP2 SWAP1 POP SWAP2 SWAP1 POP JUMP JUMPDEST PUSH32 0x496E76616C696420455448207472616E73666572000000000000000000000000 PUSH0 DUP3 ADD MSTORE POP JUMP JUMPDEST PUSH0 PUSH2 0x72B PUSH1 0x14 DUP4 PUSH2 0x505 JUMP JUMPDEST SWAP2 POP PUSH2 0x736 DUP3 PUSH2 0x6F7 JUMP JUMPDEST PUSH1 0x20 DUP3 ADD SWAP1 POP SWAP2 SWAP1 POP JUMP JUMPDEST PUSH0 PUSH1 0x20 DUP3 ADD SWAP1 POP DUP2 DUP2 SUB PUSH0 DUP4 ADD MSTORE PUSH2 0x758 DUP2 PUSH2 0x71F JUMP JUMPDEST SWAP1 POP SWAP2 SWAP1 POP JUMP INVALID LOG2 PUSH5 0x6970667358 0x22 SLT KECCAK256 TSTORE PUSH28 0x45B3E16C49B3CD5951BA76CD6C0769C2CC5CE3657CB390EAAA5EB01D 0x4F SMOD PUSH5 0x736F6C6343 STOP ADDMOD 0x1E STOP CALLER "
				},
				"gasEstimates": {
					"creation": {
						"codeDepositCost": "388200",
						"executionCost": "infinite",
						"totalCost": "infinite"
					},
					"external": {
						"depositFunds(address)": "infinite",
						"topUp()": "infinite",
						"withdrawAllFunds()": "infinite",
						"withdrawFunds(uint256)": "infinite"
					}
				},
				"methodIdentifiers": {
					"depositFunds(address)": "919747fb",
					"topUp()": "dc29f1de",
					"withdrawAllFunds()": "49649fbf",
					"withdrawFunds(uint256)": "155dd5ee"
				}
			},
			"storageLayout": {
				"storage": [
					{
						"astId": 71,
						"contract": "contracts/Vault.sol:Vault",
						"label": "funds",
						"offset": 0,
						"slot": "0",
						"type": "t_mapping(t_address,t_uint256)"
					}
				],
				"types": {
					"t_address": {
						"encoding": "inplace",
						"label": "address",
						"numberOfBytes": "20"
					},
					"t_mapping(t_address,t_uint256)": {
						"encoding": "mapping",
						"key": "t_address",
						"label": "mapping(address => uint256)",
						"numberOfBytes": "32",
						"value": "t_uint256"
					},
					"t_uint256": {
						"encoding": "inplace",
						"label": "uint256",
						"numberOfBytes": "32"
					}
				}
			},
			"userdoc": {
				"kind": "user",
				"methods": {
					"depositFunds(address)": {
						"notice": "Deposit ETH to a specific user's balance"
					},
					"topUp()": {
						"notice": "Shortcut for topping up your own balance"
					},
					"withdrawAllFunds()": {
						"notice": "Withdraw entire balance"
					},
					"withdrawFunds(uint256)": {
						"notice": "Withdraw a specific amount of your own funds"
					}
				},
				"notice": "Users can deposit for themselves or others and withdraw their own funds",
				"version": 1
			}
		}
	}
}